:020000040800F2
:10000000C808002089010008CF070008C7070008BA
:10001000CB070008BB040008590E000800000000D0
:10002000000000000000000000000000C7090008F8
:10003000610600080000000041080008B50A000839
:10004000A3010008A3010008A3010008A301000800
:10005000A3010008A3010008A3010008A3010008F0
:10006000A3010008A3010008A3010008A3010008E0
:10007000A3010008A3010008A3010008A3010008D0
:10008000A3010008A3010008A3010008A3010008C0
:10009000A3010008A3010008A3010008A3010008B0
:1000A000A3010008A3010008250B0008A301000814
:1000B000290B0008A3010008A3010008A301000800
:1000C000A3010008A3010008A3010008A301000880
:1000D000A3010008A3010008A3010008A301000870
:1000E000A3010008A3010008A301000800F002F822
:1000F00000F03AF80AA090E8000C82448344AAF188
:100100000107DA4501D100F02FF8AFF2090EBAE885
:100110000F0013F0010F18BFFB1A43F0010318473B
:100120000018000020180000103A24BF78C878C1D9
:10013000FAD8520724BF30C830C144BF04680C60ED
:10014000704700000023002400250026103A28BF35
:1001500078C1FBD8520728BF30C148BF0B60704739
:100160001FB51FBD10B510BD00F031F81146FFF7E7
:10017000F7FF00F073FE00F04FF803B4FFF7F2FF53
:1001800003BC00F057F800000948804709480047C1
:10019000FEE7FEE7FEE7FEE7FEE7FEE7FEE7FEE737
:1001A000FEE7FEE704480549054A064B7047000094
:1001B000C50A0008ED000008C8020020C808002099
:1001C000C8040020C8040020704770477047754677
:1001D00000F02CF8AE4605006946534620F00700B3
:1001E000854618B020B5FFF7DDFFBDE820404FF091
:1001F00000064FF000074FF000084FF0000B21F011
:100200000701AC46ACE8C009ACE8C009ACE8C009DD
:10021000ACE8C0098D46704710B50446AFF30080C6
:100220002046BDE81040FFF7A8BF00000048704717
:100230006402002001491820ABBEFEE72600020040
:10024000704721B1826842F00102826003E0826857
:1002500022F001028260704721B1826842F480720C
:10026000826003E0826822F480728260704700003E
:1002700010B5364800F030F9354836490860364840
:100280004860002088600320C8600020086180204A
:100290004861400088618000C86120200862000237
:1002A000486200208862294800F0BCF901212748F3
:1002B00000F005F900202949086001200871487103
:1002C0004FF4602088600020C86003200874204834
:1002D0004C3800F059F80523012200211C484C3805
:1002E00000F07AF805230222012119484C3800F069
:1002F00073F805230322022115484C3800F06CF8EE
:10030000012113484C38FFF7A7FF012110484C3852
:10031000FFF797FF0E484C3800F0BAF800BF0C48C2
:100320004C3800F027F80028F9D109484C3800F083
:10033000BFF800BF06484C3800F012F80028F9D189
:10034000012103484C3800F0A8F810BD0800024015
:100350004C240140A800002004000020940000204C
:10036000014600208A6802F004020AB1012000E080
:1003700000207047014600208A6802F008020AB196
:10038000012000E00020704730B502460020002325
:1003900050680F4C20400D790C6844EA0524204336
:1003A000506090680B4C2040D1E902542C434D79A9
:1003B00044EA450420439060D06A20F470000C7C2D
:1003C000641EE4B2234340EA0350D06230BD000013
:1003D000FFFEF0FFFDF7F1FFF0B504460D460020EB
:1003E0000021092D11DDE068A5F10A0606EB46079C
:1003F000072606FA07F18843A5F10A0606EB46062A
:1004000003FA06F10843E0600CE0206905EB4507BC
:10041000072606FA07F1884305EB450603FA06F1BD
:1004200008432061072A0FDA606B561E06EB860729
:100430001F2606FA07F18843561E06EB860605FAC4
:1004400006F10843606322E00D2A0FDA206BD61F05
:1004500006EB86071F2606FA07F18843D61F06EB30
:10046000860605FA06F10843206310E0E06AA2F16F
:100470000D0606EB86071F2606FA07F18843A2F150
:100480000D0606EB860605FA06F10843E062F0BDAC
:10049000816841F008018160704721B1826842F4AF
:1004A000A002826003E0826822F4A00282607047AA
:1004B000816841F004018160704700BFFEE721B10F
:1004C000026842F00102026004E002684FF6FE7327
:1004D0001A4002607047000001684FF6FE7211403A
:1004E00001600021016041608160C1604B49884228
:1004F00008D14A490839496841F00F01474A083A8A
:1005000051608AE045491431884208D1434908398D
:10051000496841F0F001414A083A51607DE03F49A5
:100520002831884208D13D490839496841F4706151
:100530003A4A083A516070E038493C31884208D163
:1005400036490839496841F47041344A083A5160E3
:1005500063E032495031884208D13049083949684E
:1005600041F470212D4A083A516056E02B4964311C
:10057000884208D129490839496841F47001274A5D
:10058000083A516049E025497831884208D1234929
:100590000839496841F07061204A083A51603CE0EE
:1005A0001F49884206D1011F096841F00F01021F4F
:1005B000116032E01A491431884208D11849091FE4
:1005C000096841F0F001164A121F116025E0144934
:1005D0002831884208D11249091F096841F4706125
:1005E0000F4A121F116018E00D493C31884208D1B2
:1005F0000B49091F096841F47041094A121F116033
:100600000BE007495031884207D10549091F0968A5
:1006100041F47021024A121F116070470800024025
:100620000804024010B50022026847F6F0739A43AE
:100630000C6A8B6823430C6923434C6923438C6900
:100640002343CC6923434C6A23438C6A23431A43D4
:100650000260CB6843600B6883604B68C36010BD69
:100660007047000008B54FF44070ADF80000182046
:100670008DF8030003208DF8020069460A4800F057
:1006800017F84FF4C040ADF800006946074800F085
:100690000FF80720ADF8000000208DF80300694630
:1006A000014800F005F808BD00080140000C0140B9
:1006B0002DE9F041024600250026002000230024F9
:1006C000002791F803C00CF00F0591F803C00CF05F
:1006D000100CBCF1000F03D091F802C04CEA0505E4
:1006E00091F800C0BCF1000F31D0146800202BE05D
:1006F0004FF0010C0CFA00F3B1F800C00CEA03064D
:100700009E4220D183004FF00F0C0CFA03F7BC433C
:1007100005FA03FC4CEA040491F803C0BCF1280F6D
:1007200006D14FF0010C0CFA00FCC2F814C00AE02C
:1007300091F803C0BCF1480F05D14FF0010C0CFA41
:1007400000FCC2F810C0401C0828D1D31460B1F8D6
:1007500000C0BCF1FF0F34DD546800202EE000F132
:10076000080C4FF0010808FA0CF3B1F800C00CEACD
:1007700003069E4221D183004FF00F0C0CFA03F7C1
:10078000BC4305FA03FC4CEA040491F803C0BCF135
:10079000280F05D100F1080C08FA0CF8C2F81480F3
:1007A00091F803C0BCF1480F07D100F1080C4FF0DD
:1007B000010808FA0CF8C2F81080401C0828CED3B3
:1007C0005460BDE8F08100BFFEE700BFFEE7704760
:1007D00070B5002100230F22C47804B3154C24689F
:1007E00004F4E064C4F5E064210AC1F10403CA40E2
:1007F000447804FA03F184781440214309010E4C33
:100800000678A155047804F01F050124AC40057852
:100810006D11AD0005F1E025C5F8004109E004784F
:1008200004F01F050124AC40044D0678761145F80C
:10083000264070BD0CED00E000E400E080E100E047
:100840007047000010B5002031490880488040F210
:10085000833088800020C88008722E4800F07CFA1F
:100860002C481830008840F008002A4918310880C8
:100870000846008840F4006008803020264908803F
:10088000002048808880C880088148814FF48070AB
:100890008881C8811F4800F0BFF91F491D4800F03A
:1008A00007FA00201D49088048808880C820C88039
:1008B000002008814FF400504881002088811548AD
:1008C00000F042F90121134800F06FF901211148AD
:1008D00000F077F9012200210E4800F045F90422CA
:1008E00000210C4800F04FF901220421094800F0D2
:1008F0003BF904221146074800F045F908480088F2
:1009000004493431088007480088091D088010BD5B
:1009100060000020002C01407400002084000020B2
:100920000C0000201000002001460020034A5068FF
:1009300020F440400843506070470000001002401F
:1009400029B1064A52690243044B5A6104E0034A42
:1009500052698243014B5A61704700000010024007
:1009600029B1064AD2690243044BDA6104E0034A22
:10097000D2698243014BDA617047000000100240E7
:1009800029B1064A92690243044B9A6104E0034A82
:1009900092698243014B9A61704700000010024047
:1009A00010B5012140F60D00FFF7EAFF4FF40040BB
:1009B000FFF7BAFF01214802FFF7E2FF01210846D5
:1009C000FFF7BEFF10BD704710B500F001F810BD75
:1009D0000CB50020019000903348006840F480304E
:1009E0003149086000BF3048006800F400300090D2
:1009F0000198401C0190009818B90198B0F5A06FBB
:100A0000F1D12948006800F4003010B101200090B5
:100A100001E0002000900098012843D1234800689D
:100A200040F01000214908600846006820F00300EB
:100A300008600846006840F0020008601A484068F4
:100A4000194948600846406848600846406840F4D4
:100A5000806048600846406820F47C104860084682
:100A6000406840F4E81048600846006840F0807034
:100A7000086000BF0C48006800F000700028F9D042
:100A80000948406820F0030007494860084640686C
:100A900040F00200486000BF0348406800F00C00CE
:100AA0000828F9D10CBD00000010024000200240CF
:100AB0007047000010B52021014800F091F810BDEA
:100AC000002C014010B51348006840F001001149A6
:100AD000086008464068104908400E4948600846CA
:100AE00000680E4908400B4908600846006820F479
:100AF000802008600846406820F4FE0048604FF4FB
:100B00001F008860FFF760FF4FF000600449086035
:100B100010BD0000001002400000FFF8FFFFF6FECD
:100B200008ED00E07047000010B50121880700F0D3
:100B300059F830B10121880700F034F8012001494B
:100B4000086010BD280000200A884B881A438B8853
:100B50001A43CB881A430B891A434B891A438B8952
:100B60001A43A0F84420704730B5002301248C407C
:100B7000A3B2048C9C430484048C02FA01F5ADB248
:100B80002C43048430BD30B5002304248C40A3B230
:100B9000048C9C430484048C02FA01F5ADB22C430E
:100BA000048430BDCA430282704721B1028842F0FA
:100BB0000102028004E002884FF6FE731A400280B0
:100BC000704731B1B0F8442042F40042A0F844200C
:100BD00005E0B0F84420C2F30E02A0F844207047AC
:100BE0008182704730B50246002000230024158A18
:100BF00005EA0103958905EA010413B10CB101204E
:100C000000E0002030BD1AB183890B43838102E0EC
:100C100083898B438381704770B5002400220023B1
:100C2000058C4FF6FE7635400584028C8388048B54
:100C30004FF68F752C40B51E2C400D882C43751E29
:100C40002A400D892A434D882A43144DA8420BD0CF
:100C5000134DA84208D0134DA84205D0124DA8420A
:100C600002D0124DA84213D14FF6F7752A404D8994
:100C70002A434FF6FB752A408D882A434FF6FF65BD
:100C80002B404FF6FF552B408D892B43CD892B43AD
:100C900083800483CD888586028470BD002C01404A
:100CA0000034014000400140004401400048014040
:100CB00070B5002400220023058C4FF6EF763540F6
:100CC0000584028C8388048B48F6FF752C404FF610
:100CD000FF452C400D884FF6FF7606EA05252C438C
:100CE0004FF6DF752A400D8906EA05152A434D881F
:100CF00006EA05152A43154DA84202D0144DA84214
:100D00001DD14FF67F752A404D894FF6FF7606EAD2
:100D100005152A434FF6BF752A408D8806EA05154A
:100D20002A434FF6FF352B404FF2FF752B408D893C
:100D300006EA85052B43CD8906EA85052B4383808A
:100D40000483CD880587028470BD0000002C01401B
:100D50000034014001877047002202881D4B9842F1
:100D60000ED01D4B98420BD0B0F1804F08D01B4BDA
:100D7000984205D01A4B984202D01A4B984204D19F
:100D80004FF68F731A404B881A43174B984207D07F
:100D9000164B984204D04FF6FF431A40CB881A43B3
:100DA00002808B8883850B8803850A4B98420BD081
:100DB000094B984208D00E4B984205D00D4B9842F3
:100DC00002D00D4B984201D10B7A03860123838216
:100DD00070470000002C0140003401400004004036
:100DE00000080040000C00400010004000140040CB
:100DF00000400140004401400048014010B501217D
:100E00000846FFF7ADFD0A20114908800020488000
:100E100040F2077088800020C88008724FF0804040
:100E2000FFF79AFF01218807FFF7BFFE0122114655
:100E30009007FFF7E8FE1C20064908700020487064
:100E400001208870C8700846FFF7C2FC10BD000082
:100E50006A0000200000002000BFFEE7FFF7A0FDB1
:100E6000FFF700FCFFF724FEFFF7ECFCFFF700FAAA
:100E7000FFF7C4FFBFE0604800680128FAD10020F6
:100E80005D4908605D4908605D4908600BE05D48A8
:100E900000885A4909680844584908605848006859
:100EA000401C5749086056480068B0F57A7FEEDB71
:100EB000524800684FF47A71B0FBF1F4204600F01C
:100EC00073FB514908604FF07E514F48006800F0B5
:100ED0001BFA81464FF08B4100F084FA044600F083
:100EE000E7F907464FF06632484B00F0E3F8054655
:100EF00000F0AEF8464908600846016845480068B9
:100F000000F098FC444908600846016843480068BE
:100F100000F092FB0546424900F08EFB0446414832
:100F20000168204600F0F0F93E4908603E493D481E
:100F3000006800F04DFC03D23B483A49086008E0E5
:100F400000213848006800F043FB02D200203549F8
:100F50000860364801683048006800F06BFC0746BE
:100F600033480168384600F067FB06462C4900F01C
:100F700039FA0446284801682E48006800F05CFBF6
:100F8000064628480168304600F0BEF9054621466D
:100F900000F0BAF9284908601F4800682349086032
:100FA00026492548006800F013FC03D8234822494D
:100FB000086008E022492048006800F009FB02D8D8
:100FC0001F481D4908601F480068012806D11A48BB
:100FD000006800F0C9FA1C49088002E064201A4940
:100FE000088019480088C0F1B40000EB800081B28D
:100FF0001648FFF7AFFE3EE7280000203C00002027
:1010000024000020040000203000002066660A4012
:101010003400002038000020400000205400002050
:101020006F1283395C00002000003443440000202C
:1010300058000020500000204800002000002F43EE
:101040000000A0402C0000201C000020002C0140CB
:1010500021F00042A2F16052B2F5801F01F000437E
:1010600028BFD2F17F6C0BD95FEA001C43EAC202B1
:1010700042EB507018BF704728BF20F00100704746
:10108000B2F5801FBCBF184670474FEA410C1CF5F3
:10109000001F02D2084600F096BB70B500F0B4F80D
:1010A00000000089FFF7F6BF4FF00040A0F5800078
:1010B00070470000DFF848C170B51CEA111E1EBF62
:1010C0001CEA13159EEA0C0F95EA0C0F00F06F80D6
:1010D00081EA030423EA4C134EEAD47E21EA4C1140
:1010E00041F4801143F48013AE44A1FB024CA0FBF9
:1010F0000365AEF17F7E361955EB0C05A1FB034C61
:101100004CF10003A0FB021C16EB0C06654153F1E9
:101110000003094218BF46F0010613F4007F0BD10B
:101120004FEA03314FEA0530340341EA155140EAF2
:1011300016506FF003020AE04FEAC3214FEAC520C0
:10114000F40241EA555140EA56506FF0020202EBB8
:101150002E4201EB025585EACE710AD05FEA440CBB
:1011600018BF24F0004450F1000041F1000120EAD2
:10117000D47040F2FE7C624500D270BDA84214BF1C
:101180004FF080444FF04044002E08BF0024BEF1D1
:10119000806FA8BFA1F1C041BDE8704080F282809D
:1011A0004FF0000001F1C04101F0004170479EEA9C
:1011B0000C0F0CEA131518BF95EA0C0F06D04FF070
:1011C000000081EA030E0EF0004170BD00F01CF833
:1011D0008900013E00F007B800F009B84FEA430C5F
:1011E0005FEA5C5C08D081EA030100F05BB84FEA7B
:1011F000410C5FEA5C5CF6D14FF00000014970479A
:101200000000FF070000F87F0EF1020E2EF0030E23
:101210005EF8046B364205D4012A43EB030515F54D
:10122000001F12D8012841EB010C1CF5001F0CD83F
:101230000ED14FEAD17C15F5001F0CEB4C0C0CF1D4
:10124000020C08BF4CEBD37C04E04FF0080C01E02B
:101250004FEAD37C0CEB4C0526FA05F606F00706A0
:10126000B6F1040C06D20EEB860CBDE870404CF0D3
:10127000010C6047DFE80CF0090B02024FF000415F
:101280004FF00000A1F5002170BD1946104601285D
:1012900051EB010418BFD4F5001484BF002001F005
:1012A000004170BD0808A0F500114FEA31017047F8
:1012B00043004FEAD30C4FEA3C0C43401FBF4007AA
:1012C0000CF1605113F0FE4F70471CF0006F03D11A
:1012D00000200CF0004170470CF0004343EA5070CE
:1012E00010B540EACC0000F028FA00BF00000092E0
:1012F0004FEA0001FFF7D6BF4FF000414FF000006A
:10130000A1F500217047000090EA010F48BF81F06D
:10131000004100F19682421A3CBF801A89184FEAB8
:10132000D0524FF07F4C1CEA410FA2EBD15318BFB3
:101330009CEA026F00F03B804FF0004C4CEA00202A
:101340004CEA012121FA03FC10EB0C0C1ED202F135
:10135000FF325FEA1C2040EBC25038BF70471CF0E0
:101360007F0F4FEA400C18BFBCF17F4F38BF70476A
:10137000C3F12003994008BF20F00100BCF17F4F6A
:1013800038BF7047A0F1C04000F01DBA4FEA3C00E2
:10139000000A40EBC25028BF1CF0FF0F4FEA400C80
:1013A000E6D018BFBCF17F4F38BF7047EAE79CEA30
:1013B000026F05D010EA5C0F08BF00F000407047D4
:1013C00010B500F0BAF900BF64FBBE3E401058BF34
:1013D000C0F14040491058BFC1F140418142EFF394
:1013E000008070474FF47F0C1CEAD0121EBF1CEA2D
:1013F000D11392EA0C0F93EA0C0F00F0858090EA6B
:10140000010F48BF42F4807240F4000C41F4000028
:101410002CF07F4120F07F4000B58142A2EB030217
:101420000FF2081CACEB504EC0F100009EF800E03B
:101430004FEA4E0E00FB0EFC38BF49004FEA2C1C51
:1014400002F5FA020CFB0EF34FEACE1E4FEA112C06
:101450004FEAC1210EEB635E42EB22420EFB0CFC15
:101460004FEA1C5300FB03114FEA112C4FEA0131E4
:101470000EFB0CFC4FEADC4C00FB0C11C14228BFF8
:1014800009184CEB03335DF804EB10EB410143EB1F
:10149000C250B2F57C0F38BF704729D512F0F00F5B
:1014A0001CBF00F1C04000F0004070470081828303
:1014B0008485868788898B8C8D8E8F919293959663
:1014C00097999A9C9D9FA0A2A3A5A7A8AAACAEB0ED
:1014D000B2B3B5B7B9BCBEC0C2C5C7C9CCCED1D4F2
:1014E000D7D9DCDFE2E6E9ECF0F3F7FAFE00000022
:1014F0004FEA400C0CF1807CBCF17E4F28BF704756
:10150000B0F1C04000F05FB990EA010F0CEAD113CE
:1015100048BF42F48072624538BF634507D213F476
:101520007F0F16D080EA010000F00040704710B530
:1015300000F003F9097EFC3E00F005B880EA0100E6
:1015400000F00040704780EA010000F0004000F029
:101550003AB912F47F0F04BF0248704780EA0100D5
:1015600000F031B90000C07FC10DD1F19E0206DB51
:101570004FEA002343F0004323FA02F07047004291
:1015800007D54FEA4001B1F1FE4F02D24FF0000003
:10159000704710B500F0D1F84992248000207047C0
:1015A0006FEA200070470000B0FA80F310FA03F2EF
:1015B000C3F19D030AD0D90501EB1220530638BFB1
:1015C000704700F1010008BF20F0010070470000E3
:1015D00050EA010C00F113801CF5000F58BFBCF558
:1015E000000F01D48842704707D710F5000F58BF8D
:1015F00011F5000F15D488427047894270471CF5D9
:10160000000F04D5BCF5000FF7D5814270474FF0AD
:10161000807C1CEB400F38BF1CEB410F01D2814294
:10162000704710B500F089F8922449004FF000503F
:101630004FF08051FFF7CABE4FF47F0C1CEAD01266
:101640001EBF1CEAD11392EA0C0F93EA0C0F00F0B4
:10165000478090EA010F48BF42F480724FF0004C7F
:101660004CEA00204CEA012102EB0302A0FB01132B
:10167000A2F50002002918BF43F001035B0028BF58
:101680004FEA330342EB22425FEA132C4CEBC25089
:101690002EBFBCEB436FB2F57C0F70474FEA036C73
:1016A000BCF1004F08BF20F00100B2F57C0F38BF3D
:1016B00070470BD582F0FF0212F5803FC8BF70471C
:1016C00000F1C040D8BF00F00040704700F5000CAA
:1016D0005FEA4C0C48BF7047B0F1C04000F073B8EF
:1016E00090EA010F0CEAD11348BF42F480726245C0
:1016F00038BF634504D280EA010000F00040704723
:1017000010B500F01AF800BF8900013E00F007B8DC
:1017100000F009B85FEA410C5FEA1C6C08D080EA6F
:10172000010000F050B85FEA400C5FEA1C6CF6D193
:101730004FF00040A0F5800070470EF1020E2EF031
:10174000030E5EF8044B244204D44FEA4102B2F186
:101750007F4F11D84FEA4003B3F17F4F0CD80ED121
:101760004FEAD07CB2F17F4F0CEB4C0C0CF1020C29
:1017700008BF4CEBD17C04E04FF0080C01E04FEACD
:10178000D17C0CEB4C0324FA03F404F00704B4F10D
:10179000040C06D20EEB840CBDE810404CF0010C9A
:1017A0006047DFE80CF0070802024FF00040A0F5A8
:1017B000800010BD0846420018BFD2F1807288BF79
:1017C00000F0004010BDFF2141EAD050C005704735
:1017D00051EA000C00F113801CF5000F58BFBCF556
:1017E000000F01D48142704707D711F5000F58BF91
:1017F00010F5000F15D481427047894270471CF5DF
:10180000000F04D5BCF5000FF7D5884270474FF0A4
:10181000807C1CEB410F38BF1CEB400F01D288428B
:10182000704780EA010081EA000180EA0100FFF7C9
:10183000F8BE000090EA010F48BF81F000413FF57B
:101840006AAD421A04D882F00042A0EB02001144B3
:101850004FEAD0524FF07F4C1CEA410FA2EBD1531C
:1018600018BF9CEA026F4AD04FF0004C4CEA0020AF
:101870004CEA012121FA03FCB0EB0C0C0FD412F05E
:10188000FE0F36D05FEA4C001DD5001240EBC2506F
:1018900038BF70471CF03F0F18BF70470BE0A2F134
:1018A00001025FEA1C2040EBC25038BF70471CF0B9
:1018B0007F0F18BF7047C3F12003994014BF401E2B
:1018C00020F00100704780084FEA122308BF7047DC
:1018D000B0FA80FCA2EB0C02CCF1280C60FA0CF000
:1018E00093EA122F04BF00EBC25070474FEAC37057
:1018F0007047130A5FEADC1008BF7047F6E79CEAFE
:10190000026F04D010EA5C0F08BF0020704710B5CA
:10191000FFF713FF40DFF63E81F000407047000004
:1019200040190008000000206000000028010008A5
:10193000A0190008600000206808000044010008A9
:101940000000000000000000000000008303000011
:101950000000000000000000000000006400000023
:101960000000000000000000000000000000000077
:101970000000000000000000000000400000000027
:101980000000000000000000000000000000000057
:101990006F12033A0092AE46000000000000000003
:04000005080000ED02
:00000001FF
